{
  "address": "0x2c535A51DEE21238CC4511A8DF30B2140321FEd5",
  "abi": [
    {
      "inputs": [
        {
          "internalType": "address",
          "name": "vrfCoordinatorV2",
          "type": "address"
        },
        {
          "internalType": "uint64",
          "name": "subscriptionId",
          "type": "uint64"
        },
        {
          "internalType": "uint256",
          "name": "mintFee",
          "type": "uint256"
        },
        {
          "internalType": "bytes32",
          "name": "gasLane",
          "type": "bytes32"
        },
        {
          "internalType": "uint32",
          "name": "callbackGasLimit",
          "type": "uint32"
        },
        {
          "internalType": "string[3]",
          "name": "dogTokenUris",
          "type": "string[3]"
        }
      ],
      "stateMutability": "nonpayable",
      "type": "constructor"
    },
    {
      "inputs": [
        {
          "internalType": "address",
          "name": "have",
          "type": "address"
        },
        {
          "internalType": "address",
          "name": "want",
          "type": "address"
        }
      ],
      "name": "OnlyCoordinatorCanFulfill",
      "type": "error"
    },
    {
      "inputs": [],
      "name": "RandomIpfsNft__EnoughFee",
      "type": "error"
    },
    {
      "inputs": [],
      "name": "RandomIpfsNft__RangeOutOfBounds",
      "type": "error"
    },
    {
      "inputs": [],
      "name": "RandomIpfsNft__TransferFailed",
      "type": "error"
    },
    {
      "anonymous": false,
      "inputs": [
        {
          "indexed": true,
          "internalType": "address",
          "name": "owner",
          "type": "address"
        },
        {
          "indexed": true,
          "internalType": "address",
          "name": "approved",
          "type": "address"
        },
        {
          "indexed": true,
          "internalType": "uint256",
          "name": "tokenId",
          "type": "uint256"
        }
      ],
      "name": "Approval",
      "type": "event"
    },
    {
      "anonymous": false,
      "inputs": [
        {
          "indexed": true,
          "internalType": "address",
          "name": "owner",
          "type": "address"
        },
        {
          "indexed": true,
          "internalType": "address",
          "name": "operator",
          "type": "address"
        },
        {
          "indexed": false,
          "internalType": "bool",
          "name": "approved",
          "type": "bool"
        }
      ],
      "name": "ApprovalForAll",
      "type": "event"
    },
    {
      "anonymous": false,
      "inputs": [
        {
          "indexed": false,
          "internalType": "uint256",
          "name": "_fromTokenId",
          "type": "uint256"
        },
        {
          "indexed": false,
          "internalType": "uint256",
          "name": "_toTokenId",
          "type": "uint256"
        }
      ],
      "name": "BatchMetadataUpdate",
      "type": "event"
    },
    {
      "anonymous": false,
      "inputs": [
        {
          "indexed": false,
          "internalType": "uint256",
          "name": "_tokenId",
          "type": "uint256"
        }
      ],
      "name": "MetadataUpdate",
      "type": "event"
    },
    {
      "anonymous": false,
      "inputs": [
        {
          "indexed": false,
          "internalType": "enum RandomIpfsNft.Breed",
          "name": "breed",
          "type": "uint8"
        },
        {
          "indexed": false,
          "internalType": "address",
          "name": "minter",
          "type": "address"
        }
      ],
      "name": "NftMinted",
      "type": "event"
    },
    {
      "anonymous": false,
      "inputs": [
        {
          "indexed": true,
          "internalType": "uint256",
          "name": "requestId",
          "type": "uint256"
        },
        {
          "indexed": false,
          "internalType": "address",
          "name": "requester",
          "type": "address"
        }
      ],
      "name": "NftRequested",
      "type": "event"
    },
    {
      "anonymous": false,
      "inputs": [
        {
          "indexed": true,
          "internalType": "address",
          "name": "previousOwner",
          "type": "address"
        },
        {
          "indexed": true,
          "internalType": "address",
          "name": "newOwner",
          "type": "address"
        }
      ],
      "name": "OwnershipTransferred",
      "type": "event"
    },
    {
      "anonymous": false,
      "inputs": [
        {
          "indexed": true,
          "internalType": "address",
          "name": "from",
          "type": "address"
        },
        {
          "indexed": true,
          "internalType": "address",
          "name": "to",
          "type": "address"
        },
        {
          "indexed": true,
          "internalType": "uint256",
          "name": "tokenId",
          "type": "uint256"
        }
      ],
      "name": "Transfer",
      "type": "event"
    },
    {
      "inputs": [
        {
          "internalType": "address",
          "name": "to",
          "type": "address"
        },
        {
          "internalType": "uint256",
          "name": "tokenId",
          "type": "uint256"
        }
      ],
      "name": "approve",
      "outputs": [],
      "stateMutability": "nonpayable",
      "type": "function"
    },
    {
      "inputs": [
        {
          "internalType": "address",
          "name": "owner",
          "type": "address"
        }
      ],
      "name": "balanceOf",
      "outputs": [
        {
          "internalType": "uint256",
          "name": "",
          "type": "uint256"
        }
      ],
      "stateMutability": "view",
      "type": "function"
    },
    {
      "inputs": [
        {
          "internalType": "uint256",
          "name": "tokenId",
          "type": "uint256"
        }
      ],
      "name": "getApproved",
      "outputs": [
        {
          "internalType": "address",
          "name": "",
          "type": "address"
        }
      ],
      "stateMutability": "view",
      "type": "function"
    },
    {
      "inputs": [
        {
          "internalType": "uint256",
          "name": "moddedRng",
          "type": "uint256"
        }
      ],
      "name": "getBreedFromModdedRng",
      "outputs": [
        {
          "internalType": "enum RandomIpfsNft.Breed",
          "name": "",
          "type": "uint8"
        }
      ],
      "stateMutability": "pure",
      "type": "function"
    },
    {
      "inputs": [],
      "name": "getChanceArray",
      "outputs": [
        {
          "internalType": "uint256[3]",
          "name": "",
          "type": "uint256[3]"
        }
      ],
      "stateMutability": "pure",
      "type": "function"
    },
    {
      "inputs": [
        {
          "internalType": "uint256",
          "name": "index",
          "type": "uint256"
        }
      ],
      "name": "getDogTokenUris",
      "outputs": [
        {
          "internalType": "string",
          "name": "",
          "type": "string"
        }
      ],
      "stateMutability": "view",
      "type": "function"
    },
    {
      "inputs": [],
      "name": "getMintFee",
      "outputs": [
        {
          "internalType": "uint256",
          "name": "",
          "type": "uint256"
        }
      ],
      "stateMutability": "view",
      "type": "function"
    },
    {
      "inputs": [],
      "name": "getTokenCounter",
      "outputs": [
        {
          "internalType": "uint256",
          "name": "",
          "type": "uint256"
        }
      ],
      "stateMutability": "view",
      "type": "function"
    },
    {
      "inputs": [
        {
          "internalType": "address",
          "name": "owner",
          "type": "address"
        },
        {
          "internalType": "address",
          "name": "operator",
          "type": "address"
        }
      ],
      "name": "isApprovedForAll",
      "outputs": [
        {
          "internalType": "bool",
          "name": "",
          "type": "bool"
        }
      ],
      "stateMutability": "view",
      "type": "function"
    },
    {
      "inputs": [],
      "name": "name",
      "outputs": [
        {
          "internalType": "string",
          "name": "",
          "type": "string"
        }
      ],
      "stateMutability": "view",
      "type": "function"
    },
    {
      "inputs": [],
      "name": "owner",
      "outputs": [
        {
          "internalType": "address",
          "name": "",
          "type": "address"
        }
      ],
      "stateMutability": "view",
      "type": "function"
    },
    {
      "inputs": [
        {
          "internalType": "uint256",
          "name": "tokenId",
          "type": "uint256"
        }
      ],
      "name": "ownerOf",
      "outputs": [
        {
          "internalType": "address",
          "name": "",
          "type": "address"
        }
      ],
      "stateMutability": "view",
      "type": "function"
    },
    {
      "inputs": [
        {
          "internalType": "uint256",
          "name": "requestId",
          "type": "uint256"
        },
        {
          "internalType": "uint256[]",
          "name": "randomWords",
          "type": "uint256[]"
        }
      ],
      "name": "rawFulfillRandomWords",
      "outputs": [],
      "stateMutability": "nonpayable",
      "type": "function"
    },
    {
      "inputs": [],
      "name": "renounceOwnership",
      "outputs": [],
      "stateMutability": "nonpayable",
      "type": "function"
    },
    {
      "inputs": [],
      "name": "requestNft",
      "outputs": [
        {
          "internalType": "uint256",
          "name": "requestId",
          "type": "uint256"
        }
      ],
      "stateMutability": "payable",
      "type": "function"
    },
    {
      "inputs": [
        {
          "internalType": "uint256",
          "name": "",
          "type": "uint256"
        }
      ],
      "name": "s_requestIdToSender",
      "outputs": [
        {
          "internalType": "address",
          "name": "",
          "type": "address"
        }
      ],
      "stateMutability": "view",
      "type": "function"
    },
    {
      "inputs": [
        {
          "internalType": "address",
          "name": "from",
          "type": "address"
        },
        {
          "internalType": "address",
          "name": "to",
          "type": "address"
        },
        {
          "internalType": "uint256",
          "name": "tokenId",
          "type": "uint256"
        }
      ],
      "name": "safeTransferFrom",
      "outputs": [],
      "stateMutability": "nonpayable",
      "type": "function"
    },
    {
      "inputs": [
        {
          "internalType": "address",
          "name": "from",
          "type": "address"
        },
        {
          "internalType": "address",
          "name": "to",
          "type": "address"
        },
        {
          "internalType": "uint256",
          "name": "tokenId",
          "type": "uint256"
        },
        {
          "internalType": "bytes",
          "name": "data",
          "type": "bytes"
        }
      ],
      "name": "safeTransferFrom",
      "outputs": [],
      "stateMutability": "nonpayable",
      "type": "function"
    },
    {
      "inputs": [
        {
          "internalType": "address",
          "name": "operator",
          "type": "address"
        },
        {
          "internalType": "bool",
          "name": "approved",
          "type": "bool"
        }
      ],
      "name": "setApprovalForAll",
      "outputs": [],
      "stateMutability": "nonpayable",
      "type": "function"
    },
    {
      "inputs": [
        {
          "internalType": "bytes4",
          "name": "interfaceId",
          "type": "bytes4"
        }
      ],
      "name": "supportsInterface",
      "outputs": [
        {
          "internalType": "bool",
          "name": "",
          "type": "bool"
        }
      ],
      "stateMutability": "view",
      "type": "function"
    },
    {
      "inputs": [],
      "name": "symbol",
      "outputs": [
        {
          "internalType": "string",
          "name": "",
          "type": "string"
        }
      ],
      "stateMutability": "view",
      "type": "function"
    },
    {
      "inputs": [
        {
          "internalType": "uint256",
          "name": "tokenId",
          "type": "uint256"
        }
      ],
      "name": "tokenURI",
      "outputs": [
        {
          "internalType": "string",
          "name": "",
          "type": "string"
        }
      ],
      "stateMutability": "view",
      "type": "function"
    },
    {
      "inputs": [
        {
          "internalType": "address",
          "name": "from",
          "type": "address"
        },
        {
          "internalType": "address",
          "name": "to",
          "type": "address"
        },
        {
          "internalType": "uint256",
          "name": "tokenId",
          "type": "uint256"
        }
      ],
      "name": "transferFrom",
      "outputs": [],
      "stateMutability": "nonpayable",
      "type": "function"
    },
    {
      "inputs": [
        {
          "internalType": "address",
          "name": "newOwner",
          "type": "address"
        }
      ],
      "name": "transferOwnership",
      "outputs": [],
      "stateMutability": "nonpayable",
      "type": "function"
    },
    {
      "inputs": [],
      "name": "withdraw",
      "outputs": [],
      "stateMutability": "nonpayable",
      "type": "function"
    }
  ],
  "transactionHash": "0xebc95442f7ebd22b277f96425c3f81e2c9b85f791d91ea533b0391497b333f5d",
  "args": [
    "0x8103B0A8A00be2DDC778e6e7eaa21791Cd364625",
    "5080",
    "10000000000000000",
    "0x474e34a077df58807dbe9c96d3c009b23b3c6d0cce433e59bbf5b34f823bc56c",
    "500000",
    [
      "ipfs://QmaVkBn2tKmjbhphU7eyztbvSQU5EXDdqRyXZtRhSGgJGo",
      "ipfs://QmYQC5aGZu2PTH8XzbJrbDnvhj3gVs7ya33H9mqUNvST3d",
      "ipfs://QmZYmH5iDbD6v3U2ixoVAjioSzvWJszDzYdbeCLquGSpVm"
    ]
  ],
  "numDeployments": 1,
  "solcInputHash": "d1d570912ab8a8d994513b045d82a736",
  "bytecode": "0x6101406040523480156200001257600080fd5b506040516200447f3803806200447f833981810160405281019062000038919062000813565b856040518060400160405280600f81526020017f52616e646f6d2049504653204e465400000000000000000000000000000000008152506040518060400160405280600381526020017f52494e00000000000000000000000000000000000000000000000000000000008152508160009080519060200190620000bd929190620002a6565b508060019080519060200190620000d6929190620002a6565b5050508073ffffffffffffffffffffffffffffffffffffffff1660808173ffffffffffffffffffffffffffffffffffffffff1660601b81525050506200013162000125620001d860201b60201c565b620001e060201b60201c565b8573ffffffffffffffffffffffffffffffffffffffff1660a08173ffffffffffffffffffffffffffffffffffffffff1660601b815250508467ffffffffffffffff1660c08167ffffffffffffffff1660c01b815250508361012081815250508260e081815250508163ffffffff166101008163ffffffff1660e01b81525050806009906003620001c392919062000337565b50600060088190555050505050505062000933565b600033905090565b6000600760009054906101000a900473ffffffffffffffffffffffffffffffffffffffff16905081600760006101000a81548173ffffffffffffffffffffffffffffffffffffffff021916908373ffffffffffffffffffffffffffffffffffffffff1602179055508173ffffffffffffffffffffffffffffffffffffffff168173ffffffffffffffffffffffffffffffffffffffff167f8be0079c531659141344cd1fd0a4f28419497f9722a3daafe3b4186f6b6457e060405160405180910390a35050565b828054620002b490620008fd565b90600052602060002090601f016020900481019282620002d8576000855562000324565b82601f10620002f357805160ff191683800117855562000324565b8280016001018555821562000324579182015b828111156200032357825182559160200191906001019062000306565b5b5090506200033391906200039e565b5090565b8280548282559060005260206000209081019282156200038b579160200282015b828111156200038a57825182908051906020019062000379929190620002a6565b509160200191906001019062000358565b5b5090506200039a9190620003bd565b5090565b5b80821115620003b95760008160009055506001016200039f565b5090565b5b80821115620003e15760008181620003d79190620003e5565b50600101620003be565b5090565b508054620003f390620008fd565b6000825580601f1062000407575062000428565b601f0160209004906000526020600020908101906200042791906200039e565b5b50565b6000604051905090565b600080fd5b600080fd5b600073ffffffffffffffffffffffffffffffffffffffff82169050919050565b60006200046c826200043f565b9050919050565b6200047e816200045f565b81146200048a57600080fd5b50565b6000815190506200049e8162000473565b92915050565b600067ffffffffffffffff82169050919050565b620004c381620004a4565b8114620004cf57600080fd5b50565b600081519050620004e381620004b8565b92915050565b6000819050919050565b620004fe81620004e9565b81146200050a57600080fd5b50565b6000815190506200051e81620004f3565b92915050565b6000819050919050565b620005398162000524565b81146200054557600080fd5b50565b60008151905062000559816200052e565b92915050565b600063ffffffff82169050919050565b6200057a816200055f565b81146200058657600080fd5b50565b6000815190506200059a816200056f565b92915050565b600080fd5b6000601f19601f8301169050919050565b7f4e487b7100000000000000000000000000000000000000000000000000000000600052604160045260246000fd5b620005f082620005a5565b810181811067ffffffffffffffff82111715620006125762000611620005b6565b5b80604052505050565b6000620006276200042b565b9050620006358282620005e5565b919050565b600067ffffffffffffffff821115620006585762000657620005b6565b5b602082029050919050565b600080fd5b600080fd5b600067ffffffffffffffff8211156200068b576200068a620005b6565b5b6200069682620005a5565b9050602081019050919050565b60005b83811015620006c3578082015181840152602081019050620006a6565b83811115620006d3576000848401525b50505050565b6000620006f0620006ea846200066d565b6200061b565b9050828152602081018484840111156200070f576200070e62000668565b5b6200071c848285620006a3565b509392505050565b600082601f8301126200073c576200073b620005a0565b5b81516200074e848260208601620006d9565b91505092915050565b60006200076e62000768846200063a565b6200061b565b905080602084028301858111156200078b576200078a62000663565b5b835b81811015620007d957805167ffffffffffffffff811115620007b457620007b3620005a0565b5b808601620007c3898262000724565b855260208501945050506020810190506200078d565b5050509392505050565b600082601f830112620007fb57620007fa620005a0565b5b60036200080a84828562000757565b91505092915050565b60008060008060008060c0878903121562000833576200083262000435565b5b60006200084389828a016200048d565b96505060206200085689828a01620004d2565b95505060406200086989828a016200050d565b94505060606200087c89828a0162000548565b93505060806200088f89828a0162000589565b92505060a087015167ffffffffffffffff811115620008b357620008b26200043a565b5b620008c189828a01620007e3565b9150509295509295509295565b7f4e487b7100000000000000000000000000000000000000000000000000000000600052602260045260246000fd5b600060028204905060018216806200091657607f821691505b602082108114156200092d576200092c620008ce565b5b50919050565b60805160601c60a05160601c60c05160c01c60e0516101005160e01c61012051613ae26200099d60003960008181610c7e0152610e7701526000610f5101526000610f0d01526000610f2e01526000610ed101526000818161085001526108a40152613ae26000f3fe6080604052600436106101665760003560e01c806370a08231116100d1578063a36f573b1161008a578063b88d4fde11610064578063b88d4fde14610531578063c87b56dd1461055a578063e985e9c514610597578063f2fde38b146105d457610166565b8063a36f573b14610499578063a51cccf3146104d6578063aa1524911461051357610166565b806370a082311461039b578063715018a6146103d85780637a5caab3146103ef5780638da5cb5b1461041a57806395d89b4114610445578063a22cb4651461047057610166565b80633af25975116101235780633af259751461028b5780633ccfd60b146102c857806342842e0e146102df5780635dacf5f4146103085780636352211e146103335780636e02007d1461037057610166565b806301ffc9a71461016b57806306fdde03146101a8578063081812fc146101d3578063095ea7b3146102105780631fe543e31461023957806323b872dd14610262575b600080fd5b34801561017757600080fd5b50610192600480360381019061018d91906126f5565b6105fd565b60405161019f919061273d565b60405180910390f35b3480156101b457600080fd5b506101bd61065e565b6040516101ca91906127f1565b60405180910390f35b3480156101df57600080fd5b506101fa60048036038101906101f59190612849565b6106f0565b60405161020791906128b7565b60405180910390f35b34801561021c57600080fd5b50610237600480360381019061023291906128fe565b610736565b005b34801561024557600080fd5b50610260600480360381019061025b9190612a86565b61084e565b005b34801561026e57600080fd5b5061028960048036038101906102849190612ae2565b61090e565b005b34801561029757600080fd5b506102b260048036038101906102ad9190612849565b61096e565b6040516102bf91906127f1565b60405180910390f35b3480156102d457600080fd5b506102dd610a1e565b005b3480156102eb57600080fd5b5061030660048036038101906103019190612ae2565b610ad2565b005b34801561031457600080fd5b5061031d610af2565b60405161032a9190612be0565b60405180910390f35b34801561033f57600080fd5b5061035a60048036038101906103559190612849565b610b1d565b60405161036791906128b7565b60405180910390f35b34801561037c57600080fd5b50610385610ba4565b6040516103929190612c0a565b60405180910390f35b3480156103a757600080fd5b506103c260048036038101906103bd9190612c25565b610bae565b6040516103cf9190612c0a565b60405180910390f35b3480156103e457600080fd5b506103ed610c66565b005b3480156103fb57600080fd5b50610404610c7a565b6040516104119190612c0a565b60405180910390f35b34801561042657600080fd5b5061042f610ca2565b60405161043c91906128b7565b60405180910390f35b34801561045157600080fd5b5061045a610ccc565b60405161046791906127f1565b60405180910390f35b34801561047c57600080fd5b5061049760048036038101906104929190612c7e565b610d5e565b005b3480156104a557600080fd5b506104c060048036038101906104bb9190612849565b610d74565b6040516104cd91906128b7565b60405180910390f35b3480156104e257600080fd5b506104fd60048036038101906104f89190612849565b610da7565b60405161050a9190612d35565b60405180910390f35b61051b610e73565b6040516105289190612c0a565b60405180910390f35b34801561053d57600080fd5b5061055860048036038101906105539190612e05565b611073565b005b34801561056657600080fd5b50610581600480360381019061057c9190612849565b6110d5565b60405161058e91906127f1565b60405180910390f35b3480156105a357600080fd5b506105be60048036038101906105b99190612e88565b6111e8565b6040516105cb919061273d565b60405180910390f35b3480156105e057600080fd5b506105fb60048036038101906105f69190612c25565b61127c565b005b6000634906490660e01b7bffffffffffffffffffffffffffffffffffffffffffffffffffffffff1916827bffffffffffffffffffffffffffffffffffffffffffffffffffffffff19161480610657575061065682611300565b5b9050919050565b60606000805461066d90612ef7565b80601f016020809104026020016040519081016040528092919081815260200182805461069990612ef7565b80156106e65780601f106106bb576101008083540402835291602001916106e6565b820191906000526020600020905b8154815290600101906020018083116106c957829003601f168201915b5050505050905090565b60006106fb826113e2565b6004600083815260200190815260200160002060009054906101000a900473ffffffffffffffffffffffffffffffffffffffff169050919050565b600061074182610b1d565b90508073ffffffffffffffffffffffffffffffffffffffff168373ffffffffffffffffffffffffffffffffffffffff1614156107b2576040517f08c379a00000000000000000000000000000000000000000000000000000000081526004016107a990612f9b565b60405180910390fd5b8073ffffffffffffffffffffffffffffffffffffffff166107d161142d565b73ffffffffffffffffffffffffffffffffffffffff16148061080057506107ff816107fa61142d565b6111e8565b5b61083f576040517f08c379a00000000000000000000000000000000000000000000000000000000081526004016108369061302d565b60405180910390fd5b6108498383611435565b505050565b7f000000000000000000000000000000000000000000000000000000000000000073ffffffffffffffffffffffffffffffffffffffff163373ffffffffffffffffffffffffffffffffffffffff161461090057337f00000000000000000000000000000000000000000000000000000000000000006040517f1cf993f40000000000000000000000000000000000000000000000000000000081526004016108f792919061304d565b60405180910390fd5b61090a82826114ee565b5050565b61091f61091961142d565b8261168e565b61095e576040517f08c379a0000000000000000000000000000000000000000000000000000000008152600401610955906130e8565b60405180910390fd5b610969838383611723565b505050565b60606009828154811061098457610983613108565b5b90600052602060002001805461099990612ef7565b80601f01602080910402602001604051908101604052809291908181526020018280546109c590612ef7565b8015610a125780601f106109e757610100808354040283529160200191610a12565b820191906000526020600020905b8154815290600101906020018083116109f557829003601f168201915b50505050509050919050565b610a26611a1d565b600047905060003373ffffffffffffffffffffffffffffffffffffffff1682604051610a5190613168565b60006040518083038185875af1925050503d8060008114610a8e576040519150601f19603f3d011682016040523d82523d6000602084013e610a93565b606091505b5050905080610ace576040517fca7e25b700000000000000000000000000000000000000000000000000000000815260040160405180910390fd5b5050565b610aed83838360405180602001604052806000815250611073565b505050565b610afa6125c4565b6040518060600160405280600a8152602001602881526020016064815250905090565b600080610b2983611a9b565b9050600073ffffffffffffffffffffffffffffffffffffffff168173ffffffffffffffffffffffffffffffffffffffff161415610b9b576040517f08c379a0000000000000000000000000000000000000000000000000000000008152600401610b92906131c9565b60405180910390fd5b80915050919050565b6000600854905090565b60008073ffffffffffffffffffffffffffffffffffffffff168273ffffffffffffffffffffffffffffffffffffffff161415610c1f576040517f08c379a0000000000000000000000000000000000000000000000000000000008152600401610c169061325b565b60405180910390fd5b600360008373ffffffffffffffffffffffffffffffffffffffff1673ffffffffffffffffffffffffffffffffffffffff168152602001908152602001600020549050919050565b610c6e611a1d565b610c786000611ad8565b565b60007f0000000000000000000000000000000000000000000000000000000000000000905090565b6000600760009054906101000a900473ffffffffffffffffffffffffffffffffffffffff16905090565b606060018054610cdb90612ef7565b80601f0160208091040260200160405190810160405280929190818152602001828054610d0790612ef7565b8015610d545780601f10610d2957610100808354040283529160200191610d54565b820191906000526020600020905b815481529060010190602001808311610d3757829003601f168201915b5050505050905090565b610d70610d6961142d565b8383611b9e565b5050565b600a6020528060005260406000206000915054906101000a900473ffffffffffffffffffffffffffffffffffffffff1681565b600080600090506000610db8610af2565b905060005b6003811015610e3b57828510158015610dec5750818160038110610de457610de3613108565b5b602002015185105b15610e0e57806002811115610e0457610e03612cbe565b5b9350505050610e6e565b818160038110610e2157610e20613108565b5b602002015192508080610e33906132aa565b915050610dbd565b506040517f12806c9d00000000000000000000000000000000000000000000000000000000815260040160405180910390fd5b919050565b60007f0000000000000000000000000000000000000000000000000000000000000000341015610ecf576040517f63482d0500000000000000000000000000000000000000000000000000000000815260040160405180910390fd5b7f000000000000000000000000000000000000000000000000000000000000000073ffffffffffffffffffffffffffffffffffffffff16635d3b1d307f00000000000000000000000000000000000000000000000000000000000000007f000000000000000000000000000000000000000000000000000000000000000060037f000000000000000000000000000000000000000000000000000000000000000060016040518663ffffffff1660e01b8152600401610f9295949392919061336b565b602060405180830381600087803b158015610fac57600080fd5b505af1158015610fc0573d6000803e3d6000fd5b505050506040513d601f19601f82011682018060405250810190610fe491906133d3565b905033600a600083815260200190815260200160002060006101000a81548173ffffffffffffffffffffffffffffffffffffffff021916908373ffffffffffffffffffffffffffffffffffffffff160217905550807ff873236e6cc0ecc5be1a9a35c95ee5b8d1ac4cc7bfef0cc5060391d6cc98e26b3360405161106891906128b7565b60405180910390a290565b61108461107e61142d565b8361168e565b6110c3576040517f08c379a00000000000000000000000000000000000000000000000000000000081526004016110ba906130e8565b60405180910390fd5b6110cf84848484611d0b565b50505050565b60606110e0826113e2565b600060066000848152602001908152602001600020805461110090612ef7565b80601f016020809104026020016040519081016040528092919081815260200182805461112c90612ef7565b80156111795780601f1061114e57610100808354040283529160200191611179565b820191906000526020600020905b81548152906001019060200180831161115c57829003601f168201915b50505050509050600061118a611d67565b90506000815114156111a05781925050506111e3565b6000825111156111d55780826040516020016111bd92919061343c565b604051602081830303815290604052925050506111e3565b6111de84611d7e565b925050505b919050565b6000600560008473ffffffffffffffffffffffffffffffffffffffff1673ffffffffffffffffffffffffffffffffffffffff16815260200190815260200160002060008373ffffffffffffffffffffffffffffffffffffffff1673ffffffffffffffffffffffffffffffffffffffff16815260200190815260200160002060009054906101000a900460ff16905092915050565b611284611a1d565b600073ffffffffffffffffffffffffffffffffffffffff168173ffffffffffffffffffffffffffffffffffffffff1614156112f4576040517f08c379a00000000000000000000000000000000000000000000000000000000081526004016112eb906134d2565b60405180910390fd5b6112fd81611ad8565b50565b60007f80ac58cd000000000000000000000000000000000000000000000000000000007bffffffffffffffffffffffffffffffffffffffffffffffffffffffff1916827bffffffffffffffffffffffffffffffffffffffffffffffffffffffff191614806113cb57507f5b5e139f000000000000000000000000000000000000000000000000000000007bffffffffffffffffffffffffffffffffffffffffffffffffffffffff1916827bffffffffffffffffffffffffffffffffffffffffffffffffffffffff1916145b806113db57506113da82611de6565b5b9050919050565b6113eb81611e50565b61142a576040517f08c379a0000000000000000000000000000000000000000000000000000000008152600401611421906131c9565b60405180910390fd5b50565b600033905090565b816004600083815260200190815260200160002060006101000a81548173ffffffffffffffffffffffffffffffffffffffff021916908373ffffffffffffffffffffffffffffffffffffffff160217905550808273ffffffffffffffffffffffffffffffffffffffff166114a883610b1d565b73ffffffffffffffffffffffffffffffffffffffff167f8c5be1e5ebec7d5bd14f71427d1e84f3dd0314c0f7b2291e5b200ac8c7c3b92560405160405180910390a45050565b6000600a600084815260200190815260200160002060009054906101000a900473ffffffffffffffffffffffffffffffffffffffff16905060006008549050600060648460008151811061154557611544613108565b5b60200260200101516115579190613521565b9050600061156482610da7565b90506008546008600082825461157a9190613552565b9250508190555061158b8484611e91565b61164d8360098360028111156115a4576115a3612cbe565b5b815481106115b5576115b4613108565b5b9060005260206000200180546115ca90612ef7565b80601f01602080910402602001604051908101604052809291908181526020018280546115f690612ef7565b80156116435780601f1061161857610100808354040283529160200191611643565b820191906000526020600020905b81548152906001019060200180831161162657829003601f168201915b5050505050611eaf565b7f8a269f26b688e110e9cbd887d163dab35cae678fa353a0292de532c0cac1ecdc818560405161167e9291906135a8565b60405180910390a1505050505050565b60008061169a83610b1d565b90508073ffffffffffffffffffffffffffffffffffffffff168473ffffffffffffffffffffffffffffffffffffffff1614806116dc57506116db81856111e8565b5b8061171a57508373ffffffffffffffffffffffffffffffffffffffff16611702846106f0565b73ffffffffffffffffffffffffffffffffffffffff16145b91505092915050565b8273ffffffffffffffffffffffffffffffffffffffff1661174382610b1d565b73ffffffffffffffffffffffffffffffffffffffff1614611799576040517f08c379a000000000000000000000000000000000000000000000000000000000815260040161179090613643565b60405180910390fd5b600073ffffffffffffffffffffffffffffffffffffffff168273ffffffffffffffffffffffffffffffffffffffff161415611809576040517f08c379a0000000000000000000000000000000000000000000000000000000008152600401611800906136d5565b60405180910390fd5b6118168383836001611f5a565b8273ffffffffffffffffffffffffffffffffffffffff1661183682610b1d565b73ffffffffffffffffffffffffffffffffffffffff161461188c576040517f08c379a000000000000000000000000000000000000000000000000000000000815260040161188390613643565b60405180910390fd5b6004600082815260200190815260200160002060006101000a81549073ffffffffffffffffffffffffffffffffffffffff02191690556001600360008573ffffffffffffffffffffffffffffffffffffffff1673ffffffffffffffffffffffffffffffffffffffff168152602001908152602001600020600082825403925050819055506001600360008473ffffffffffffffffffffffffffffffffffffffff1673ffffffffffffffffffffffffffffffffffffffff16815260200190815260200160002060008282540192505081905550816002600083815260200190815260200160002060006101000a81548173ffffffffffffffffffffffffffffffffffffffff021916908373ffffffffffffffffffffffffffffffffffffffff160217905550808273ffffffffffffffffffffffffffffffffffffffff168473ffffffffffffffffffffffffffffffffffffffff167fddf252ad1be2c89b69c2b068fc378daa952ba7f163c4a11628f55a4df523b3ef60405160405180910390a4611a188383836001611f60565b505050565b611a2561142d565b73ffffffffffffffffffffffffffffffffffffffff16611a43610ca2565b73ffffffffffffffffffffffffffffffffffffffff1614611a99576040517f08c379a0000000000000000000000000000000000000000000000000000000008152600401611a9090613741565b60405180910390fd5b565b60006002600083815260200190815260200160002060009054906101000a900473ffffffffffffffffffffffffffffffffffffffff169050919050565b6000600760009054906101000a900473ffffffffffffffffffffffffffffffffffffffff16905081600760006101000a81548173ffffffffffffffffffffffffffffffffffffffff021916908373ffffffffffffffffffffffffffffffffffffffff1602179055508173ffffffffffffffffffffffffffffffffffffffff168173ffffffffffffffffffffffffffffffffffffffff167f8be0079c531659141344cd1fd0a4f28419497f9722a3daafe3b4186f6b6457e060405160405180910390a35050565b8173ffffffffffffffffffffffffffffffffffffffff168373ffffffffffffffffffffffffffffffffffffffff161415611c0d576040517f08c379a0000000000000000000000000000000000000000000000000000000008152600401611c04906137ad565b60405180910390fd5b80600560008573ffffffffffffffffffffffffffffffffffffffff1673ffffffffffffffffffffffffffffffffffffffff16815260200190815260200160002060008473ffffffffffffffffffffffffffffffffffffffff1673ffffffffffffffffffffffffffffffffffffffff16815260200190815260200160002060006101000a81548160ff0219169083151502179055508173ffffffffffffffffffffffffffffffffffffffff168373ffffffffffffffffffffffffffffffffffffffff167f17307eab39ab6107e8899845ad3d59bd9653f200f220920489ca2b5937696c3183604051611cfe919061273d565b60405180910390a3505050565b611d16848484611723565b611d2284848484611f66565b611d61576040517f08c379a0000000000000000000000000000000000000000000000000000000008152600401611d589061383f565b60405180910390fd5b50505050565b606060405180602001604052806000815250905090565b6060611d89826113e2565b6000611d93611d67565b90506000815111611db35760405180602001604052806000815250611dde565b80611dbd846120fd565b604051602001611dce92919061343c565b6040516020818303038152906040525b915050919050565b60007f01ffc9a7000000000000000000000000000000000000000000000000000000007bffffffffffffffffffffffffffffffffffffffffffffffffffffffff1916827bffffffffffffffffffffffffffffffffffffffffffffffffffffffff1916149050919050565b60008073ffffffffffffffffffffffffffffffffffffffff16611e7283611a9b565b73ffffffffffffffffffffffffffffffffffffffff1614159050919050565b611eab8282604051806020016040528060008152506121d5565b5050565b611eb882611e50565b611ef7576040517f08c379a0000000000000000000000000000000000000000000000000000000008152600401611eee906138d1565b60405180910390fd5b80600660008481526020019081526020016000209080519060200190611f1e9291906125e6565b507ff8e1a15aba9398e019f0b49df1a4fde98ee17ae345cb5f6b5e2c27f5033e8ce782604051611f4e9190612c0a565b60405180910390a15050565b50505050565b50505050565b6000611f878473ffffffffffffffffffffffffffffffffffffffff16612230565b156120f0578373ffffffffffffffffffffffffffffffffffffffff1663150b7a02611fb061142d565b8786866040518563ffffffff1660e01b8152600401611fd29493929190613946565b602060405180830381600087803b158015611fec57600080fd5b505af192505050801561201d57506040513d601f19601f8201168201806040525081019061201a91906139a7565b60015b6120a0573d806000811461204d576040519150601f19603f3d011682016040523d82523d6000602084013e612052565b606091505b50600081511415612098576040517f08c379a000000000000000000000000000000000000000000000000000000000815260040161208f9061383f565b60405180910390fd5b805181602001fd5b63150b7a0260e01b7bffffffffffffffffffffffffffffffffffffffffffffffffffffffff1916817bffffffffffffffffffffffffffffffffffffffffffffffffffffffff1916149150506120f5565b600190505b949350505050565b60606000600161210c84612253565b01905060008167ffffffffffffffff81111561212b5761212a612943565b5b6040519080825280601f01601f19166020018201604052801561215d5781602001600182028036833780820191505090505b509050600082602001820190505b6001156121ca578080600190039150507f3031323334353637383961626364656600000000000000000000000000000000600a86061a8153600a85816121b4576121b36134f2565b5b04945060008514156121c5576121ca565b61216b565b819350505050919050565b6121df83836123a6565b6121ec6000848484611f66565b61222b576040517f08c379a00000000000000000000000000000000000000000000000000000000081526004016122229061383f565b60405180910390fd5b505050565b6000808273ffffffffffffffffffffffffffffffffffffffff163b119050919050565b600080600090507a184f03e93ff9f4daa797ed6e38ed64bf6a1f01000000000000000083106122b1577a184f03e93ff9f4daa797ed6e38ed64bf6a1f01000000000000000083816122a7576122a66134f2565b5b0492506040810190505b6d04ee2d6d415b85acef810000000083106122ee576d04ee2d6d415b85acef810000000083816122e4576122e36134f2565b5b0492506020810190505b662386f26fc10000831061231d57662386f26fc100008381612313576123126134f2565b5b0492506010810190505b6305f5e1008310612346576305f5e100838161233c5761233b6134f2565b5b0492506008810190505b612710831061236b576127108381612361576123606134f2565b5b0492506004810190505b6064831061238e5760648381612384576123836134f2565b5b0492506002810190505b600a831061239d576001810190505b80915050919050565b600073ffffffffffffffffffffffffffffffffffffffff168273ffffffffffffffffffffffffffffffffffffffff161415612416576040517f08c379a000000000000000000000000000000000000000000000000000000000815260040161240d90613a20565b60405180910390fd5b61241f81611e50565b1561245f576040517f08c379a000000000000000000000000000000000000000000000000000000000815260040161245690613a8c565b60405180910390fd5b61246d600083836001611f5a565b61247681611e50565b156124b6576040517f08c379a00000000000000000000000000000000000000000000000000000000081526004016124ad90613a8c565b60405180910390fd5b6001600360008473ffffffffffffffffffffffffffffffffffffffff1673ffffffffffffffffffffffffffffffffffffffff16815260200190815260200160002060008282540192505081905550816002600083815260200190815260200160002060006101000a81548173ffffffffffffffffffffffffffffffffffffffff021916908373ffffffffffffffffffffffffffffffffffffffff160217905550808273ffffffffffffffffffffffffffffffffffffffff16600073ffffffffffffffffffffffffffffffffffffffff167fddf252ad1be2c89b69c2b068fc378daa952ba7f163c4a11628f55a4df523b3ef60405160405180910390a46125c0600083836001611f60565b5050565b6040518060600160405280600390602082028036833780820191505090505090565b8280546125f290612ef7565b90600052602060002090601f016020900481019282612614576000855561265b565b82601f1061262d57805160ff191683800117855561265b565b8280016001018555821561265b579182015b8281111561265a57825182559160200191906001019061263f565b5b509050612668919061266c565b5090565b5b8082111561268557600081600090555060010161266d565b5090565b6000604051905090565b600080fd5b600080fd5b60007fffffffff0000000000000000000000000000000000000000000000000000000082169050919050565b6126d28161269d565b81146126dd57600080fd5b50565b6000813590506126ef816126c9565b92915050565b60006020828403121561270b5761270a612693565b5b6000612719848285016126e0565b91505092915050565b60008115159050919050565b61273781612722565b82525050565b6000602082019050612752600083018461272e565b92915050565b600081519050919050565b600082825260208201905092915050565b60005b83811015612792578082015181840152602081019050612777565b838111156127a1576000848401525b50505050565b6000601f19601f8301169050919050565b60006127c382612758565b6127cd8185612763565b93506127dd818560208601612774565b6127e6816127a7565b840191505092915050565b6000602082019050818103600083015261280b81846127b8565b905092915050565b6000819050919050565b61282681612813565b811461283157600080fd5b50565b6000813590506128438161281d565b92915050565b60006020828403121561285f5761285e612693565b5b600061286d84828501612834565b91505092915050565b600073ffffffffffffffffffffffffffffffffffffffff82169050919050565b60006128a182612876565b9050919050565b6128b181612896565b82525050565b60006020820190506128cc60008301846128a8565b92915050565b6128db81612896565b81146128e657600080fd5b50565b6000813590506128f8816128d2565b92915050565b6000806040838503121561291557612914612693565b5b6000612923858286016128e9565b925050602061293485828601612834565b9150509250929050565b600080fd5b7f4e487b7100000000000000000000000000000000000000000000000000000000600052604160045260246000fd5b61297b826127a7565b810181811067ffffffffffffffff8211171561299a57612999612943565b5b80604052505050565b60006129ad612689565b90506129b98282612972565b919050565b600067ffffffffffffffff8211156129d9576129d8612943565b5b602082029050602081019050919050565b600080fd5b6000612a026129fd846129be565b6129a3565b90508083825260208201905060208402830185811115612a2557612a246129ea565b5b835b81811015612a4e5780612a3a8882612834565b845260208401935050602081019050612a27565b5050509392505050565b600082601f830112612a6d57612a6c61293e565b5b8135612a7d8482602086016129ef565b91505092915050565b60008060408385031215612a9d57612a9c612693565b5b6000612aab85828601612834565b925050602083013567ffffffffffffffff811115612acc57612acb612698565b5b612ad885828601612a58565b9150509250929050565b600080600060608486031215612afb57612afa612693565b5b6000612b09868287016128e9565b9350506020612b1a868287016128e9565b9250506040612b2b86828701612834565b9150509250925092565b600060039050919050565b600081905092915050565b6000819050919050565b612b5e81612813565b82525050565b6000612b708383612b55565b60208301905092915050565b6000602082019050919050565b612b9281612b35565b612b9c8184612b40565b9250612ba782612b4b565b8060005b83811015612bd8578151612bbf8782612b64565b9650612bca83612b7c565b925050600181019050612bab565b505050505050565b6000606082019050612bf56000830184612b89565b92915050565b612c0481612813565b82525050565b6000602082019050612c1f6000830184612bfb565b92915050565b600060208284031215612c3b57612c3a612693565b5b6000612c49848285016128e9565b91505092915050565b612c5b81612722565b8114612c6657600080fd5b50565b600081359050612c7881612c52565b92915050565b60008060408385031215612c9557612c94612693565b5b6000612ca3858286016128e9565b9250506020612cb485828601612c69565b9150509250929050565b7f4e487b7100000000000000000000000000000000000000000000000000000000600052602160045260246000fd5b60038110612cfe57612cfd612cbe565b5b50565b6000819050612d0f82612ced565b919050565b6000612d1f82612d01565b9050919050565b612d2f81612d14565b82525050565b6000602082019050612d4a6000830184612d26565b92915050565b600080fd5b600067ffffffffffffffff821115612d7057612d6f612943565b5b612d79826127a7565b9050602081019050919050565b82818337600083830152505050565b6000612da8612da384612d55565b6129a3565b905082815260208101848484011115612dc457612dc3612d50565b5b612dcf848285612d86565b509392505050565b600082601f830112612dec57612deb61293e565b5b8135612dfc848260208601612d95565b91505092915050565b60008060008060808587031215612e1f57612e1e612693565b5b6000612e2d878288016128e9565b9450506020612e3e878288016128e9565b9350506040612e4f87828801612834565b925050606085013567ffffffffffffffff811115612e7057612e6f612698565b5b612e7c87828801612dd7565b91505092959194509250565b60008060408385031215612e9f57612e9e612693565b5b6000612ead858286016128e9565b9250506020612ebe858286016128e9565b9150509250929050565b7f4e487b7100000000000000000000000000000000000000000000000000000000600052602260045260246000fd5b60006002820490506001821680612f0f57607f821691505b60208210811415612f2357612f22612ec8565b5b50919050565b7f4552433732313a20617070726f76616c20746f2063757272656e74206f776e6560008201527f7200000000000000000000000000000000000000000000000000000000000000602082015250565b6000612f85602183612763565b9150612f9082612f29565b604082019050919050565b60006020820190508181036000830152612fb481612f78565b9050919050565b7f4552433732313a20617070726f76652063616c6c6572206973206e6f7420746f60008201527f6b656e206f776e6572206f7220617070726f76656420666f7220616c6c000000602082015250565b6000613017603d83612763565b915061302282612fbb565b604082019050919050565b600060208201905081810360008301526130468161300a565b9050919050565b600060408201905061306260008301856128a8565b61306f60208301846128a8565b9392505050565b7f4552433732313a2063616c6c6572206973206e6f7420746f6b656e206f776e6560008201527f72206f7220617070726f76656400000000000000000000000000000000000000602082015250565b60006130d2602d83612763565b91506130dd82613076565b604082019050919050565b60006020820190508181036000830152613101816130c5565b9050919050565b7f4e487b7100000000000000000000000000000000000000000000000000000000600052603260045260246000fd5b600081905092915050565b50565b6000613152600083613137565b915061315d82613142565b600082019050919050565b600061317382613145565b9150819050919050565b7f4552433732313a20696e76616c696420746f6b656e2049440000000000000000600082015250565b60006131b3601883612763565b91506131be8261317d565b602082019050919050565b600060208201905081810360008301526131e2816131a6565b9050919050565b7f4552433732313a2061646472657373207a65726f206973206e6f74206120766160008201527f6c6964206f776e65720000000000000000000000000000000000000000000000602082015250565b6000613245602983612763565b9150613250826131e9565b604082019050919050565b6000602082019050818103600083015261327481613238565b9050919050565b7f4e487b7100000000000000000000000000000000000000000000000000000000600052601160045260246000fd5b60006132b582612813565b91507fffffffffffffffffffffffffffffffffffffffffffffffffffffffffffffffff8214156132e8576132e761327b565b5b600182019050919050565b6000819050919050565b613306816132f3565b82525050565b600067ffffffffffffffff82169050919050565b6133298161330c565b82525050565b600061ffff82169050919050565b6133468161332f565b82525050565b600063ffffffff82169050919050565b6133658161334c565b82525050565b600060a08201905061338060008301886132fd565b61338d6020830187613320565b61339a604083018661333d565b6133a7606083018561335c565b6133b4608083018461335c565b9695505050505050565b6000815190506133cd8161281d565b92915050565b6000602082840312156133e9576133e8612693565b5b60006133f7848285016133be565b91505092915050565b600081905092915050565b600061341682612758565b6134208185613400565b9350613430818560208601612774565b80840191505092915050565b6000613448828561340b565b9150613454828461340b565b91508190509392505050565b7f4f776e61626c653a206e6577206f776e657220697320746865207a65726f206160008201527f6464726573730000000000000000000000000000000000000000000000000000602082015250565b60006134bc602683612763565b91506134c782613460565b604082019050919050565b600060208201905081810360008301526134eb816134af565b9050919050565b7f4e487b7100000000000000000000000000000000000000000000000000000000600052601260045260246000fd5b600061352c82612813565b915061353783612813565b925082613547576135466134f2565b5b828206905092915050565b600061355d82612813565b915061356883612813565b9250827fffffffffffffffffffffffffffffffffffffffffffffffffffffffffffffffff0382111561359d5761359c61327b565b5b828201905092915050565b60006040820190506135bd6000830185612d26565b6135ca60208301846128a8565b9392505050565b7f4552433732313a207472616e736665722066726f6d20696e636f72726563742060008201527f6f776e6572000000000000000000000000000000000000000000000000000000602082015250565b600061362d602583612763565b9150613638826135d1565b604082019050919050565b6000602082019050818103600083015261365c81613620565b9050919050565b7f4552433732313a207472616e7366657220746f20746865207a65726f2061646460008201527f7265737300000000000000000000000000000000000000000000000000000000602082015250565b60006136bf602483612763565b91506136ca82613663565b604082019050919050565b600060208201905081810360008301526136ee816136b2565b9050919050565b7f4f776e61626c653a2063616c6c6572206973206e6f7420746865206f776e6572600082015250565b600061372b602083612763565b9150613736826136f5565b602082019050919050565b6000602082019050818103600083015261375a8161371e565b9050919050565b7f4552433732313a20617070726f766520746f2063616c6c657200000000000000600082015250565b6000613797601983612763565b91506137a282613761565b602082019050919050565b600060208201905081810360008301526137c68161378a565b9050919050565b7f4552433732313a207472616e7366657220746f206e6f6e20455243373231526560008201527f63656976657220696d706c656d656e7465720000000000000000000000000000602082015250565b6000613829603283612763565b9150613834826137cd565b604082019050919050565b600060208201905081810360008301526138588161381c565b9050919050565b7f45524337323155524953746f726167653a2055524920736574206f66206e6f6e60008201527f6578697374656e7420746f6b656e000000000000000000000000000000000000602082015250565b60006138bb602e83612763565b91506138c68261385f565b604082019050919050565b600060208201905081810360008301526138ea816138ae565b9050919050565b600081519050919050565b600082825260208201905092915050565b6000613918826138f1565b61392281856138fc565b9350613932818560208601612774565b61393b816127a7565b840191505092915050565b600060808201905061395b60008301876128a8565b61396860208301866128a8565b6139756040830185612bfb565b8181036060830152613987818461390d565b905095945050505050565b6000815190506139a1816126c9565b92915050565b6000602082840312156139bd576139bc612693565b5b60006139cb84828501613992565b91505092915050565b7f4552433732313a206d696e7420746f20746865207a65726f2061646472657373600082015250565b6000613a0a602083612763565b9150613a15826139d4565b602082019050919050565b60006020820190508181036000830152613a39816139fd565b9050919050565b7f4552433732313a20746f6b656e20616c7265616479206d696e74656400000000600082015250565b6000613a76601c83612763565b9150613a8182613a40565b602082019050919050565b60006020820190508181036000830152613aa581613a69565b905091905056fea264697066735822122011795e56cbc673b4731ec5011b6234e96a21eabb09c34b3126de4f92c955597c64736f6c63430008080033",
  "devdoc": {
    "kind": "dev",
    "methods": {
      "approve(address,uint256)": {
        "details": "See {IERC721-approve}."
      },
      "balanceOf(address)": {
        "details": "See {IERC721-balanceOf}."
      },
      "getApproved(uint256)": {
        "details": "See {IERC721-getApproved}."
      },
      "isApprovedForAll(address,address)": {
        "details": "See {IERC721-isApprovedForAll}."
      },
      "name()": {
        "details": "See {IERC721Metadata-name}."
      },
      "owner()": {
        "details": "Returns the address of the current owner."
      },
      "ownerOf(uint256)": {
        "details": "See {IERC721-ownerOf}."
      },
      "renounceOwnership()": {
        "details": "Leaves the contract without owner. It will not be possible to call `onlyOwner` functions. Can only be called by the current owner. NOTE: Renouncing ownership will leave the contract without an owner, thereby disabling any functionality that is only available to the owner."
      },
      "safeTransferFrom(address,address,uint256)": {
        "details": "See {IERC721-safeTransferFrom}."
      },
      "safeTransferFrom(address,address,uint256,bytes)": {
        "details": "See {IERC721-safeTransferFrom}."
      },
      "setApprovalForAll(address,bool)": {
        "details": "See {IERC721-setApprovalForAll}."
      },
      "supportsInterface(bytes4)": {
        "details": "See {IERC165-supportsInterface}"
      },
      "symbol()": {
        "details": "See {IERC721Metadata-symbol}."
      },
      "tokenURI(uint256)": {
        "details": "See {IERC721Metadata-tokenURI}."
      },
      "transferFrom(address,address,uint256)": {
        "details": "See {IERC721-transferFrom}."
      },
      "transferOwnership(address)": {
        "details": "Transfers ownership of the contract to a new account (`newOwner`). Can only be called by the current owner."
      }
    },
    "version": 1
  },
  "userdoc": {
    "kind": "user",
    "methods": {},
    "version": 1
  },
  "storageLayout": {
    "storage": [
      {
        "astId": 320,
        "contract": "contracts/RandomIpfsNft.sol:RandomIpfsNft",
        "label": "_name",
        "offset": 0,
        "slot": "0",
        "type": "t_string_storage"
      },
      {
        "astId": 322,
        "contract": "contracts/RandomIpfsNft.sol:RandomIpfsNft",
        "label": "_symbol",
        "offset": 0,
        "slot": "1",
        "type": "t_string_storage"
      },
      {
        "astId": 326,
        "contract": "contracts/RandomIpfsNft.sol:RandomIpfsNft",
        "label": "_owners",
        "offset": 0,
        "slot": "2",
        "type": "t_mapping(t_uint256,t_address)"
      },
      {
        "astId": 330,
        "contract": "contracts/RandomIpfsNft.sol:RandomIpfsNft",
        "label": "_balances",
        "offset": 0,
        "slot": "3",
        "type": "t_mapping(t_address,t_uint256)"
      },
      {
        "astId": 334,
        "contract": "contracts/RandomIpfsNft.sol:RandomIpfsNft",
        "label": "_tokenApprovals",
        "offset": 0,
        "slot": "4",
        "type": "t_mapping(t_uint256,t_address)"
      },
      {
        "astId": 340,
        "contract": "contracts/RandomIpfsNft.sol:RandomIpfsNft",
        "label": "_operatorApprovals",
        "offset": 0,
        "slot": "5",
        "type": "t_mapping(t_address,t_mapping(t_address,t_bool))"
      },
      {
        "astId": 1371,
        "contract": "contracts/RandomIpfsNft.sol:RandomIpfsNft",
        "label": "_tokenURIs",
        "offset": 0,
        "slot": "6",
        "type": "t_mapping(t_uint256,t_string_storage)"
      },
      {
        "astId": 161,
        "contract": "contracts/RandomIpfsNft.sol:RandomIpfsNft",
        "label": "_owner",
        "offset": 0,
        "slot": "7",
        "type": "t_address"
      },
      {
        "astId": 3167,
        "contract": "contracts/RandomIpfsNft.sol:RandomIpfsNft",
        "label": "s_tokenCounter",
        "offset": 0,
        "slot": "8",
        "type": "t_uint256"
      },
      {
        "astId": 3173,
        "contract": "contracts/RandomIpfsNft.sol:RandomIpfsNft",
        "label": "s_dogTokenUris",
        "offset": 0,
        "slot": "9",
        "type": "t_array(t_string_storage)dyn_storage"
      },
      {
        "astId": 3190,
        "contract": "contracts/RandomIpfsNft.sol:RandomIpfsNft",
        "label": "s_requestIdToSender",
        "offset": 0,
        "slot": "10",
        "type": "t_mapping(t_uint256,t_address)"
      }
    ],
    "types": {
      "t_address": {
        "encoding": "inplace",
        "label": "address",
        "numberOfBytes": "20"
      },
      "t_array(t_string_storage)dyn_storage": {
        "base": "t_string_storage",
        "encoding": "dynamic_array",
        "label": "string[]",
        "numberOfBytes": "32"
      },
      "t_bool": {
        "encoding": "inplace",
        "label": "bool",
        "numberOfBytes": "1"
      },
      "t_mapping(t_address,t_bool)": {
        "encoding": "mapping",
        "key": "t_address",
        "label": "mapping(address => bool)",
        "numberOfBytes": "32",
        "value": "t_bool"
      },
      "t_mapping(t_address,t_mapping(t_address,t_bool))": {
        "encoding": "mapping",
        "key": "t_address",
        "label": "mapping(address => mapping(address => bool))",
        "numberOfBytes": "32",
        "value": "t_mapping(t_address,t_bool)"
      },
      "t_mapping(t_address,t_uint256)": {
        "encoding": "mapping",
        "key": "t_address",
        "label": "mapping(address => uint256)",
        "numberOfBytes": "32",
        "value": "t_uint256"
      },
      "t_mapping(t_uint256,t_address)": {
        "encoding": "mapping",
        "key": "t_uint256",
        "label": "mapping(uint256 => address)",
        "numberOfBytes": "32",
        "value": "t_address"
      },
      "t_mapping(t_uint256,t_string_storage)": {
        "encoding": "mapping",
        "key": "t_uint256",
        "label": "mapping(uint256 => string)",
        "numberOfBytes": "32",
        "value": "t_string_storage"
      },
      "t_string_storage": {
        "encoding": "bytes",
        "label": "string",
        "numberOfBytes": "32"
      },
      "t_uint256": {
        "encoding": "inplace",
        "label": "uint256",
        "numberOfBytes": "32"
      }
    }
  }
}